:020000040000FA
:10000000D0020020C9020000D1020000D30200008B
:10001000D5020000D7020000D90200000000000055
:10002000000000000000000000000000DB020000F3
:10003000DD02000000000000DF020000CD0D000026
:10004000E3020000E5020000E7020000E902000010
:10005000EB020000ED020000EF020000F1020000E0
:10006000F3020000F5020000F7020000F9020000B0
:10007000FB020000FD020000FF020000010300007F
:10008000030300000503000007030000090300004C
:100090000B0300000D0300000F030000110300001C
:1000A00013030000150300001703000019030000EC
:1000B0001B0300001D0300001F03000021030000BC
:1000C000230300002503000027030000290300008C
:1000D0002B0300002D0300002F030000310300005C
:1000E000330300003503000037030000390300002C
:1000F0003B0300003D0300003F03000041030000FC
:1001000043030000450300004703000049030000CB
:100110004B0300004D0300004F030000510300009B
:10012000530300005503000057030000590300006B
:100130005B0300005D0300005F030000610300003B
:1001400063030000650300006703000081030000F3
:100150000000000000000000830300008503000091
:100160008703000089030000000000008B030000EB
:100170008D0300008F030000910300009303000033
:100180009503000097030000990300009B03000003
:100190009D0300009F030000A1030000A3030000D3
:1001A000A5030000A7030000A9030000AB030000A3
:1001B000AD030000AF030000B1030000B303000073
:1001C000B5030000B7030000B9030000BB03000043
:1001D000BD030000BF030000C1030000C303000013
:1001E000C5030000C7030000C9030000CB030000E3
:1001F000CD030000CF030000D1030000D3030000B3
:1002000000F002F800F03CF80AA090E8000C8244EC
:100210008344AAF10107DA4501D100F031F8AFF2C9
:10022000090EBAE80F0013F0010F18BFFB1A43F0D4
:10023000010318473C1600005C160000103A24BF6A
:1002400078C878C1FAD8520724BF30C830C144BF3B
:1002500004680C607047000000230024002500267D
:10026000103A28BF78C1FBD8520728BF30C148BF19
:100270000B6070471FB501F0CBF91FBD10B510BD65
:1002800000F0BBF81146FFF7F5FF01F003F800F0AE
:10029000D9F803B4FFF7F2FF03BC00F0E1F8000067
:1002A000EFF3108072B67047EFF310807047EFF3F2
:1002B000108062B6704730BF704780F31188704776
:1002C000EFF31180704700004548804745480047DC
:1002D000FEE7FEE7FEE7FEE7FEE7FEE7FEE7FEE7F6
:1002E000FEE7FEE7FEE7FEE7FEE7FEE7FEE7FEE7E6
:1002F000FEE7FEE7FEE7FEE7FEE7FEE7FEE7FEE7D6
:10030000FEE7FEE7FEE7FEE7FEE7FEE7FEE7FEE7C5
:10031000FEE7FEE7FEE7FEE7FEE7FEE7FEE7FEE7B5
:10032000FEE7FEE7FEE7FEE7FEE7FEE7FEE7FEE7A5
:10033000FEE7FEE7FEE7FEE7FEE7FEE7FEE7FEE795
:10034000FEE7FEE7FEE7FEE7FEE7FEE7FEE7FEE785
:10035000FEE7FEE7FEE7FEE7FEE7FEE7FEE7FEE775
:10036000FEE7FEE7FEE7FEE7FEE7FEE7FEE7FEE765
:10037000FEE7FEE7FEE7FEE7FEE7FEE7FEE7FEE755
:10038000FEE7FEE7FEE7FEE7FEE7FEE7FEE7FEE745
:10039000FEE7FEE7FEE7FEE7FEE7FEE7FEE7FEE735
:1003A000FEE7FEE7FEE7FEE7FEE7FEE7FEE7FEE725
:1003B000FEE7FEE7FEE7FEE7FEE7FEE7FEE7FEE715
:1003C000FEE7FEE7FEE7FEE7FEE7FEE7FEE7FEE705
:1003D000FEE7FEE704480549034A054B7047000065
:1003E000690F000001020000D0000020D0020020B0
:1003F000D0000020704770477047754600F02CF819
:10040000AE4605006946534620F00700854618B001
:1004100020B5FFF7DFFFBDE820404FF000064FF0AA
:1004200000074FF000084FF0000B21F00701AC4629
:10043000ACE8C009ACE8C009ACE8C009ACE8C00948
:100440008D46704710B50446AFF300802046BDE8E6
:100450001040FFF71EBF0000004870476C000020EE
:1004600001491820ABBEFEE72600020070470000DD
:1004700010B50F4800F05CFC0E4800F059FC02215A
:100480000D4800F0AEFA00231A4603210B4800F095
:100490009FF8622300220321084800F0E2F80321BC
:1004A000064800F0D7F80321044800F065F810BDB5
:1004B000003800F0040800F00040024000800340D3
:1004C00008B503210A4800F076F800BF0022032196
:1004D000074800F056F80028F8D00321044800F03F
:1004E0004BF86A460321024800F0A2F8009808BDC4
:1004F0000080034010B50F4800F01AFC0E4800F0D1
:1005000017FC04210D4800F06CFA00231A46032161
:100510000B4800F05DF8612300220321084800F039
:10052000A0F80321064800F095F80321044800F0E4
:1005300023F810BD013800F0040800F0004002402C
:100540000090034008B503210A4800F034F800BFCA
:1005500000220321074800F014F80028F8D00321F6
:10056000044800F009F86A460321024800F060F8E8
:10057000009808BD00900340012202FA01F1C16019
:10058000704732B1C0684FF0011202FA01F1084021
:100590007047406801228A4042F48032104010F4D3
:1005A000803F08BF704740F470204FF4803202FA59
:1005B00001F1884370470A4601F00F0101236FF3F0
:1005C0000F0203FA01F11143826A114381627047FD
:1005D00030B4446989004FF00F0C0CFA01FC02F0B2
:1005E0000F0524EA0C048D402C434461046A03F097
:1005F000030324EA0C0C03FA01F14CEA0101016245
:1006000002F00F018B1F032B84BF30BC7047C90061
:10061000C3694FF0300C30390CFA01FC02F03002A3
:1006200023EA0C0302FA01F11943C16130BC70479F
:1006300000EB411000F14001002003E08B6842F81C
:10064000043B401CCB6813F4807F18BF7047082818
:10065000F4D370470268012303FA01F111430160EA
:10066000704710B400EB4110910050F840CF0F22BA
:100670008A4003F00F042CEA020C8C404CEA040C74
:10068000C0F800C0D0F818C0C3F303242CEA020C51
:100690008C404CEA040CC0F818C0D0F804C0C3F376
:1006A00003142CEA020C8C404CEA040CC0F804C081
:1006B000D0F81CC0C3F303542CEA020C8C404CEA63
:1006C000040CC0F81CC013F4702F4FF001040DD0BF
:1006D000D0F814C0C3F302432CEA02028B401A4341
:1006E0004261026904FA01F1114304E0026904FA6B
:1006F00001F122EA0101016110BC704770B50646A4
:10070000802501241AE006EA050028B9002201210B
:10071000154800F090F904E001221146124800F05B
:100720008AF902221146104800F085F900220221C0
:100730000D4800F080F96D10601CC4B2082CE2DD99
:100740000121094800F05BF902221146064800F039
:1007500072F900220221044800F06DF901210248DB
:1007600000F05BF970BD0000002006402DE9F0416B
:100770000546AE0002221146184800F05CF901223D
:100780001146164800F057F900220121134800F0E5
:1007900052F900220221114800F04DF99820FFF78C
:1007A000ADFFC6F30724A6EB0420C7B22046FFF72F
:1007B000A5FF3846FFF7A2FF00220121074800F0FD
:1007C0003AF902221146054800F035F90122114696
:1007D000024800F030F9BDE8F0810000002006403A
:1007E00010B50849084800F031F90849086000F0E0
:1007F00023F8FFF73DFEFFF77DFE00F0CBFA00F097
:100800001DF910BD002D3101800600F124000020EB
:10081000D0F8003412F0010F14BF0B438B43C0F823
:10082000003412F0020FD0F8202414BF114322EA42
:100830000101C0F82014704710B5164800F078FA8E
:1008400000BF144800F088FA0028FAD01148801C34
:1008500000F06EFA00BF0F48801C00F07DFA0028FF
:10086000F9D00C48401C00F063FA00BF0948401C56
:1008700000F072FA0028F9D03021074800F0CDF8D6
:100880000121064800F0C9F80321054800F0C5F829
:1008900010BD0000090800F00010064000300640BE
:1008A000002006402DE9F00301264FF0000C03253F
:1008B000C2F3411706FA0CF40C4211D0D0F8C48FE1
:1008C0004FEA4C0405FA04F928EA0908C0F8C48F75
:1008D000D0F8C48F07FA04F448EA0404C0F8C44FFF
:1008E0000CF1010C0CF0FF0CBCF1080FE2D3D0F8B6
:1008F00000C512F0010F14BF4CEA010C2CEA010CE8
:10090000C0F800C5D0F804C512F0020F14BF4CEABD
:10091000010C2CEA010CC0F804C5D0F808C512F08F
:10092000040F14BF4CEA010C2CEA010CC0F808C5F6
:10093000D0F818C512F0080F14BF4CEA010C2CEACD
:10094000010CC0F818C512F0100FD0F83C2514BFE8
:100950000A438A43C0F83C25D0F80C2513F0010F58
:1009600014BF0A438A43C0F80C25D0F8102513F0B1
:10097000020F14BF0A438A43C0F81025D0F814258B
:1009800013F0040F14BF0A438A43C0F81425D0F8AB
:100990001C2513F0080F14BF0A438A43C0F81C2516
:1009A000D0F8442513F4007F14BF0A438A43C0F8EB
:1009B0004425D0F8402513F4407F14BF0A438A43EE
:1009C000C0F84025D0F82825002B0CBF114322EA9F
:1009D0000101C0F82815BDE8F003704750F8210068
:1009E000704730B50C4605460022FFF711FF21463F
:1009F0002846BDE8304000230122FFF753BF30B541
:100A00000C4605460022FFF703FF21462846BDE8B5
:100A1000304008230122FFF745BF30B50C4605469C
:100A200008230122FFF73EFF21462846BDE830405B
:100A30000122FFF7EDBE40F82120704710B5FFF707
:100A400036FC002818BF012010BD00002DE9F0037E
:100A5000AD4D02462868AD4B1840A0F18053B3F568
:100A6000A02358D002F03809DFF8A482C2F384141E
:100A7000B9F1100F24D0B9F1300F04BF47F2305054
:100A80004FF400130CD03820904304BF4FF40040C3
:100A9000C30105D012F0380F1CBF0020034613D04D
:100AA0009C4F12F4605F4FF0000618BF00222CD05C
:100AB00057F8324044457DD307EBC2025268DFE06D
:100AC000002340461524EBE7A4F10900122822D2A6
:100AD0009148D5F87CC04FF04C7350F824002CF0AE
:100AE0001C0C072CA8BF4CF0100CC5F87CC02E6D58
:100AF0004FF4002C16F4807FD2D1BCF1010C0AD047
:100B00002E6D16F4807FF8D0CAE712F0380F18BFA8
:100B1000B9F1100F03D0BDE8F00300207047C2F315
:100B20000268DFF8F8C1002257F83290E14503D39C
:100B300007EBC202526803E0521C062AF4D3324685
:100B4000C5F8C020D5F8B020DFF8D4C102EA0C0205
:100B500042F00042C5F8B020DFF8C8C1A4F1090294
:100B60004C1E5CF828C0A444BCFBF1FCD5F8B010C6
:100B70001943C5F8B01008EBC80101EB41046A49FC
:100B800002EB420201EBC40101EB82046468C5F888
:100B90006441D5F864416FF0FF0808EB0C2C44EA7F
:100BA0000C0CC5F864C151F82210D5F8602102F48C
:100BB000000200E05FE01143C5F86011D5F8601154
:100BC000D5F86021C1F38921C2F30904D5F8642165
:100BD000C2F3042202F1010CD5F8642102F01F02D5
:100BE000521CB0FBF2F04A09C2F1000844434243F0
:100BF00001EB481104EB5212484302EB9020B0FB8A
:100C0000FCF041080846002257F832C0844503D35F
:100C100007EBC200466802E0521C062AF4D3C5F86E
:100C2000C060D5F8600110F4000F1DBFD5F8B0000A
:100C300040F08040C5F8B000D5F8600104BF40F432
:100C40000000C5F860014FF40040D5F8682112F0AB
:100C5000010F02D1401E0028F7DC002808BF002148
:100C600048D0D5F8B000184340F0010040F01040E3
:100C7000C5F8B0003EE0521C062AFFF419AF324618
:100C8000C5F8C020D5F8602122F40002C5F8602123
:100C9000D5F8B020DFF894C002EA0C0242F000421E
:100CA000C5F8B020002908BF4FF0000C0AD0B0FBF7
:100CB000F1FCBCF1000F18BFACF1010C0CF101010B
:100CC000B0FBF1F10846002257F83240844203D3CA
:100CD00007EBC200466802E0521C062AF4D3C5F8AE
:100CE000C060D5F8B00043EA8C22104340F00040C9
:100CF000C5F8B000D5F8B00020F47000C5F8B00019
:100D0000BDE8F0030846704700E00F400000FF70A8
:100D10000024F400401800002416000040787D01F3
:100D200000FC0FE01C16000090160000FF0300EF0F
:100D3000C0F307230749C0B2194401F07043C1F35F
:100D4000130143EA411141EA800040F000700122A2
:100D50000260704700E60F40C0F307220849C0B2A6
:100D6000114401F07042C1F3130142EA411141EA1A
:100D7000800040F000700068002818BF0120704714
:100D800000EA0F404FF0E020016941F005010161E8
:100D90007047000010B5064800683221B0FBF1F43E
:100DA000204600F00EF8FFF7EDFF00F003F810BD4D
:100DB000240000204FF0E020016941F002010161B0
:100DC00070474FF0E021401E4861704710B5012088
:100DD0005849087058480078401CC0B256490870FD
:100DE000022805DB0120554908700020524908708F
:100DF00053480078401CC0B251490870192805DBDF
:100E000001205049087000204D4908704E4A4F4853
:100E100001784F4800F09CF900F04AF94D490870FC
:100E200008460078002873D04B480078042805DA7B
:100E300049480078401C484908707AE046480078E4
:100E4000042876D1434800780A2869D2DFE800F008
:100E50006805213D14304C6868584048006842F2EB
:100E6000AB61884207D23D48006864303B49086066
:100E700001203B49087054E038480068642807D9CD
:100E800036480068643835490860012034490870E4
:100E900047E03248006842F20571884207D22F4885
:100EA00000680A302D49086001202D49087038E09B
:100EB0002A4800680A2807D3284800680A382749C2
:100EC00008600120264908702BE02448006842F29F
:100ED0000E71884207D221480068401C1F490860F3
:100EE00001201F4908701CE01C48006838B11B48ED
:100EF0000068401E1949086001201949087010E077
:100F000018480068012804D100201649086003E051
:100F10000CE001201349086001201149087000E02D
:100F200000BF00BF05200C49087002E000200A49FC
:100F3000087010BD04000020000000200200002006
:100F400001000020030000201B0000200D000020F5
:100F500005000020190000201A00002010000020C9
:100F600018000020600000200448006840F4700071
:100F700002490860024803490860704788ED00E0B4
:100F80000024F40068000020014600202D2956D0DE
:100F900014DC212976D2DFE801F030323436383AD9
:100FA0003C3E40424446484A4C4E757575757575D1
:100FB0007575757575757575757554004C294ED0B8
:100FC0000ADCA1F14102092A5CD2DFE802F03E5BB3
:100FD000594E4C443C524000592948D006DC4E2919
:100FE00037D052293DD055294CD136E05F2924D045
:100FF000622943D06F2945D13EE03F2044E00620DE
:1010000042E05B2040E04F203EE066203CE06D2067
:101010003AE07D2038E0072036E07F2034E06F2082
:1010200032E0772030E07C202EE039202CE05E207A
:101030002AE0792028E0712026E0082024E04020E2
:1010400022E0002020E03D201EE077201CE006206A
:101050001AE0372018E0712016E03E2014E0382016
:1010600012E0502010E079200EE05E200CE06E20AF
:101070000AE0762008E005E05C2005E07C2003E043
:10108000392001E0002000BF00BF704710B50022EA
:1010900010210648FFF7CFFC8A2000F0A7F81022A5
:1010A00011460248FFF7C7FC10BD000000100640C3
:1010B00038B50025002210212448FFF7BCFC42204F
:1010C00000F094F8002401E0601CC4B2052CFBDBA6
:1010D000002405E000F0B4F80DF80400601CC4B270
:1010E000042CF7DB102211461848FFF7A4FC9DF8EA
:1010F0000000042800D101259DF80000022800D13D
:1011000002259DF80000012800D103259DF800006C
:10111000402800D104259DF80000202800D1052595
:101120009DF80000102800D106259DF80100042834
:1011300000D107259DF80100022800D108259DF85F
:101140000100012800D10925284638BD00100640BD
:101150002DE9FF4105460E4617464FF001080024D1
:1011600019E0285DFFF710FF0DF8140006EA0800EB
:1011700028B11DF8140040F080000DF814004FEA6B
:1011800048604FEA1068385D012101EB44010DF819
:101190000100601CC4B2082CE3DB002210211248BD
:1011A000FFF749FC402000F021F8102211460E48BC
:1011B000FFF741FC002210210B48FFF73CFCC02048
:1011C00000F014F8002405E01DF8040000F00EF80B
:1011D000601CC4B2102CF7DB102211460248FFF746
:1011E0002AFCBDE8FF8100000010064070B50446EF
:1011F00020211148FFF711FC00251AE000220121EF
:101200000E48FFF718FC04F0010028B12022114617
:101210000948FFF710FC04E0002220210648FFF7F0
:101220000AFC6410012211460448FFF704FC681C04
:10123000C5B2082DE2DB70BD00100640003006404C
:1012400070B5002420211148FFF7D9FB002518E0D4
:101250006410002201210E48FFF7EDFB0122114628
:101260000B48FFF7E8FB20210848FFF7B7FB08B160
:1012700044F08004002201210548FFF7DCFB681CD4
:10128000C5B2082DE4DB204670BD0000001006400A
:1012900000300640FFF7A4FA00BFC54800780328D5
:1012A000FBDBFFF7F3FE0120C24908707FE1C14874
:1012B000007801286DD10020BE490870BE48006842
:1012C000C0EB0011C1EB802040F6E441B0FBF1F02F
:1012D0001238BA490860BA48006801282DD1B948C7
:1012E00000884FF47A7190FBF1F00A2190FBF1F243
:1012F00001FB1200B4490870B2480088642190FBD9
:10130000F1F00A2190FBF1F201FB1200AE494870A6
:10131000AC4800880A2190FBF1F090FBF1F201FB50
:101320001200A9498870A74800880A2190FBF1F2B1
:1013300001FB1200A449C87027E09F4800684FF4E1
:101340007A71B0FBF1F0A04908709B4800686421F5
:10135000B0FBF1F00A21B0FBF1F201FB12009A4957
:101360004870954800680A21B0FBF1F0B0FBF1F23B
:1013700001FB1200944988708F4800680A21B0FB75
:10138000F1F201FB12009049C8708C480068FFF729
:10139000EDF98E480078012888D100208B4908702B
:1013A000FFF78EF88A490860FFF7CCF88949086092
:1013B0008948D0ED000A864890ED000AB8EE400A50
:1013C00020EE800A8448D0ED000AB7EE001A71EED4
:1013D000600A824890ED001A00EE810A804880ED94
:1013E000000A804890ED000A7D48D0ED000A30EEFA
:1013F000200A7C4880ED000A794890ED000A774881
:1014000080ED000A7448D0ED000A084690ED000A0D
:10141000B8EE400A20EE800A6F48D0ED000AB7EE21
:10142000001A71EE600A704890ED001A00EE810A11
:101430006E4880ED000A6E4890ED000A6B48D0EDD2
:10144000000A30EE200A6A4880ED000A674890EDF5
:10145000000A654880ED000A66480078401C65492E
:1014600008700846007864490988884294D10020B1
:10147000604908705B4890ED000ADFED600A60EE9D
:10148000200A5D48008800EE100AB8EE401A80EE8F
:10149000810ADFED5B0A80EE201AB0EE080A31EE19
:1014A000000ABCEEC00A10EE100A464908809FED03
:1014B000550A4C4880ED000A4D4890ED000ADFEDDA
:1014C000520A60EE200A4C48008800EE100AB8EE7E
:1014D000401A80EE810ADFED4A0A80EE201AB2EE51
:1014E000080A31EE400ABCEEC00A10EE100A474965
:1014F00008809FED440A3E4880ED000A30480068AD
:1015000001282CD12F4800884FF47A7190FBF1F01C
:101510000A2190FBF1F201FB12002B4908702948C7
:101520000088642190FBF1F00A2190FBF1F201FBAD
:10153000120025494870234800880A2190FBF1F0E9
:1015400090FBF1F201FB12001F4988701D480088D2
:101550000A2190FBF1F201FB12001B49C8702B48D5
:1015600000884FF47A7190FBF1F017490871274811
:101570000088642190FBF1F00A2190FBF1F201FB5D
:10158000120011494871214800880A2190FBF1F0AE
:1015900090FBF1F201FB12000B4988711B48008897
:1015A0000A2190FBF1F201FB12000749C8717EE6A7
:1015B000010000201800002010000020140000206E
:1015C00060000020440000200500002004000020EE
:1015D000280000202C000020580000204800002097
:1015E0004C0000203C00002050000020540000204F
:1015F00040000020380000205C00002000B8D045EA
:1016000000F07F450000000000904D45460000209E
:101610004FF04070E1EE100A704700000068890941
:10162000001C4E0E40420F0000201C0080841E0053
:1016300000802500999E36000040380000093D00DA
:1016400000803E0000004B00404B4C0000204E004C
:10165000808D5B0000C05D000080700000127A0089
:1016600000007D0080969800001BB7000080BB0042
:10167000C0E8CE00647ADA000024F4000000FA002A
:1016800080A81201002D310100366E0140787D01E5
:101690004000000000000000000100003E000800C3
:1016A0000000000000010000A00000000200000097
:1016B000000100003454010000000000000100009F
:1016C0002B70060000000000000100002800000050
:1016D00000000000000100002700010000000000E1
:1016E00000010000200000000000000000010000D8
:1016F0005000000002000000000100001AAC0000D1
:101700000000000000010000179409000000000024
:101710000001000016980500000000000001000014
:101720001400000000000000000100001380080009
:101730000000000000010000A00000000800000000
:101740000001000010000000000000000001000087
:10175000280000000200000000010000400000001E
:101760000400000000010000600000000000000014
:10177000000100005D000C000000000000010000FE
:101780005000000000000000000100004E000200B8
:10179000000000000001000041AC0100000000005A
:1017A000000100003C0000000000000000010000FB
:1017B0003A80090000000000000100003000000035
:1017C00000000000000100002800000000000000F0
:1017D00000010000270001000000000000010000DF
:1017E00023600600000000000001000021600800E6
:1017F00000000000000100001E00000000000000CA
:10180000000100001DC004000000000000010000F5
:10181000500000000200000000010000180000005D
:1018200000000000000100001400000000000000A3
:101830000001000060000000040000000001000042
:101840000024F40030003000005A62029100910040
:1018500000879303D200D20000B4C4041301130123
:1018600000E1F50554015401000E2707950195018B
:1018700090180000000000206C0000003C020000F6
:10188000FC1800006C0000206402000058020000F8
:101890000000000000202020202020202011000037
:1018A0000000000000000000000000000000000038
:1018B0000000000000000000000000000000000028
:1018C0000000000000000000000000000000000018
:1018D0000000000000000000000000000000000008
:1018E0000000000000000000CDCC4C3D32000000A4
:0C18F00000000000010000000024F400D3
:0400000500000201F4
:00000001FF
