:020000040000FA
:10000000D0080020250300002D0300002F0300006E
:10001000310300003303000035030000000000003E
:100020000000000000000000000000003703000096
:1000300039030000000000003B030000D114000061
:100040003F0300004103000043030000450300009C
:10005000470300003D1A00004B0300004D03000061
:100060004F0300005103000053030000550300003C
:1000700057030000590300005B0300005D0300000C
:100080005F030000610300006303000065030000DC
:1000900067030000690300006B0300006D030000AC
:1000A0006F0300007103000073030000750300007C
:1000B00077030000790300007B0300007D0300004C
:1000C0007F0300008103000083030000850300001C
:1000D00087030000890300008B0300008D030000EC
:1000E0008F030000910300009303000095030000BC
:1000F00097030000990300009B0300009D0300008C
:100100009F030000A1030000A3030000A50300005B
:10011000A7030000A9030000AB030000AD0300002B
:10012000AF030000B1030000B3030000B5030000FB
:10013000B7030000B9030000BB03000089160000EC
:10014000BF030000C1030000C3030000DD03000083
:100150000000000000000000DF030000E1030000D9
:10016000E3030000E503000000000000E7030000D7
:10017000E9030000EB030000ED030000EF030000C3
:10018000F1030000F3030000F5030000F703000093
:10019000F9030000FB030000FD030000FF03000063
:1001A000010400000304000005040000070400002F
:1001B000090400000B0400000D0400000F040000FF
:1001C00011040000130400001504000017040000CF
:1001D000190400001B0400001D0400001F0400009F
:1001E000210400002304000025040000270400006F
:1001F000290400002B0400002D0400002F0400003F
:1002000000F002F800F06AF80AA090E8000C8244BE
:100210008344AAF10107DA4501D100F05FF8AFF29B
:10022000090EBAE80F0013F0010F18BFFB1A43F0D4
:1002300001031847CC340000EC3400000A444FF0AE
:10024000000C10F8013B13F0070408BF10F8014B35
:100250001D1108BF10F8015B641E05D010F8016B7A
:10026000641E01F8016BF9D113F0080F1EBF10F8DE
:10027000014BAD1C0C1B09D16D1E58BF01F801CB01
:10028000FAD505E014F8016B01F8016B6D1EF9D584
:100290009142D6D370470000002300240025002699
:1002A000103A28BF78C1FBD8520728BF30C148BFD9
:1002B0000B607047642900F01B81002070471FB558
:1002C00002F005FF00F04AFA04000020002102F0CD
:1002D0004FFA401C60601FBD10B510BD00F0BEFAA3
:1002E0001146FFF7ECFF02F03DF800F0DCFA03B432
:1002F000FFF7F2FF03BC00F0DFFA0000EFF310801D
:1003000072B67047EFF310807047EFF3108062B65B
:10031000704730BF704780F311887047EFF311804A
:10032000704700004548804745480047FEE7FEE724
:10033000FEE7FEE7FEE7FEE7FEE7FEE7FEE7FEE795
:10034000FEE7FEE7FEE7FEE7FEE7FEE7FEE7FEE785
:10035000FEE7FEE7FEE7FEE7FEE7FEE7FEE7FEE775
:10036000FEE7FEE7FEE7FEE7FEE7FEE7FEE7FEE765
:10037000FEE7FEE7FEE7FEE7FEE7FEE7FEE7FEE755
:10038000FEE7FEE7FEE7FEE7FEE7FEE7FEE7FEE745
:10039000FEE7FEE7FEE7FEE7FEE7FEE7FEE7FEE735
:1003A000FEE7FEE7FEE7FEE7FEE7FEE7FEE7FEE725
:1003B000FEE7FEE7FEE7FEE7FEE7FEE7FEE7FEE715
:1003C000FEE7FEE7FEE7FEE7FEE7FEE7FEE7FEE705
:1003D000FEE7FEE7FEE7FEE7FEE7FEE7FEE7FEE7F5
:1003E000FEE7FEE7FEE7FEE7FEE7FEE7FEE7FEE7E5
:1003F000FEE7FEE7FEE7FEE7FEE7FEE7FEE7FEE7D5
:10040000FEE7FEE7FEE7FEE7FEE7FEE7FEE7FEE7C4
:10041000FEE7FEE7FEE7FEE7FEE7FEE7FEE7FEE7B4
:10042000FEE7FEE7FEE7FEE7FEE7FEE7FEE7FEE7A4
:1004300004480549034A054B70470000691600004F
:1004400001020000D0060020D0080020D0060020C5
:1004500010B500F083F9001D10BD00BF152300008A
:100460000FB41CB5074B06AA7B446946009005985B
:1004700000F0D7F90020694600F0E6F91CBC5DF8F1
:1004800014FB0000DD0300002DE9F0410E46044698
:10049000002020622046E168884730B3252805D037
:1004A000D4E901219047206A401CF2E7E168204628
:1004B00000278847050018D0A5F14100192802D867
:1004C00020354FF400673246294620462760FFF763
:1004D000F1FE40B1012804D0F61D26F007060836CB
:1004E000D8E7361DD6E72846DAE7206ABDE8F0816E
:1004F0002DE9F0410646002410687529314616A5FD
:1005000010D0AFF30080002802DA404213A507E0C4
:1005100031688A0701D512A502E0490704D511A563
:10052000012401E0AFF3008000210A2206F1240734
:1005300009E0B0FBF2FCB0FBF2F302FB1C00303030
:1005400078541846491C0028F3D123462A463046E1
:10055000BDE8F04100F006B9000000002D000000E9
:100560002B0000002000000040EA0103024630B5E5
:100570009B0710D14FF0013400E008C208C91D1BD1
:100580009D4315EAC41FF8D013F0FF0102F8011BC8
:100590000DD01B0AF8E711F8013B002B02F8013BD4
:1005A00005D011F8013B002B02F8013BF3D130BD1F
:1005B00010B5431C02E010F8011B71B18107FAD19C
:1005C0004FF0013202C88C1A8C4314EAC211F9D0E0
:1005D000C01A0A0603D0C01E10BDC01A10BD0A04FE
:1005E00001D0801E10BD0902FCD0401E10BD40EAA3
:1005F000010370B59B072ED14FF00136042A2AD390
:1006000008C810C99D1B9D43121F15EAC61517D0B7
:10061000D8B2E1B2401A50EA056110D198B2A1B245
:10062000401A50EA05410AD123F07F4024F07F416F
:10063000401A50EA052102D1180EA0EB146070BDDB
:10064000A342DBD018BA21BA884201D9012070BD7B
:100650004FF0FF3070BD0AB9002070BD10F8013BAB
:1006600011F8014B63B1A3420AD1521E08D010F811
:10067000013B11F8014B1BB1A34201D1521EEDD138
:10068000181B70BD4FF0000200B513469446964605
:10069000203922BFA0E80C50A0E80C50B1F1200195
:1006A000BFF4F7AF090728BFA0E80C5048BF0CC043
:1006B0005DF804EB890028BF40F8042B08BF7047A1
:1006C00048BF20F8022B11F0804F18BF00F8012B13
:1006D000704700004FF0013C50F8042B51F8043BE8
:1006E0009A4221D1A2EB0C03934313EACC1317D106
:1006F00050F8042B51F8043B9A4215D1A2EB0C039D
:10070000934313EACC130BD150F8042B51F8043B5C
:100710009A4209D1A2EB0C03934313EACC13DBD02A
:100720004FF00000704700BFD01A01BAB1FA81F152
:1007300001F0180122FA01F0CB40C1F12001DBB237
:10074000C0B2C01A2CFA01F3D11A914311EAC311B5
:10075000E6D1704770477047704700000048704707
:100760008C0600202DE9F0470D4699469246044636
:1007700000F124080168880604D5E06921F0100121
:10078000216000E00120A84201DD471B00E00027B6
:10079000A1697A1902EB0900081AA0612078C00645
:1007A00002D42046AFF30080002608E0D4E90121FE
:1007B0001AF806009047206A401C761C20624E45BD
:1007C000F4DB2078C0060AD52046AFF3008006E0AF
:1007D000D4E9012130209047206A401C2062381E55
:1007E000A7F10107F4DC07E0D4E9012118F80500BE
:1007F0009047206A401C2062281EA5F10105F3DC09
:100800002046AFF300802078000602D50220BDE824
:10081000F0870120FBE7000001694A1C02610878AB
:10082000704700B58FB0CDE9013100210591054930
:100830007944CDE9031011466846FFF725FE0FB055
:1008400000BD0000E5FFFFFF0A6802F8010B0A6027
:1008500070470000004870476C0600207546FFF79F
:10086000F9FFAE4605006946534620F0070085466D
:1008700018B020B5FFF7DCFDBDE820404FF00006C2
:100880004FF000074FF000084FF0000B21F0070178
:10089000AC46ACE8C009ACE8C009ACE8C009ACE8BB
:1008A000C0098D46704710B50446AFF3008020465E
:1008B000BDE81040FFF71BBD01491820ABBEFEE7A5
:1008C000260002007047000010B5144800F0B2FD89
:1008D000134800F0AFFD0221124800F056FB04213E
:1008E000104800F052FB00231A4601210E4800F088
:1008F000AFF80123002219460B4800F0F2F86223FA
:1009000001221146084800F0ECF80121064800F0E9
:10091000E1F80121044800F06FF810BD003800F044
:10092000040800F000400240008003401FB5012190
:100930000D4800F080F800BF002201210A4800F0B5
:1009400060F80028F8D00121074800F055F86A4601
:100950000121054800F0ACF80449019808600449F9
:10096000009808601FBD00000080034028000020A0
:100970002C00002010B50F4800F05CFD0E4800F080
:1009800059FD08210D4800F000FB00231A46032101
:100990000B4800F05DF8602300220321084800F0B6
:1009A000A0F80321064800F095F80321044800F060
:1009B00023F810BD013800F0040800F000400240A8
:1009C0000090034008B503210A4800F034F800BF46
:1009D00000220321074800F014F80028F8D0032172
:1009E000044800F009F86A460321024800F060F864
:1009F000009808BD00900340012202FA01F1C16095
:100A0000704732B1C0684FF0011202FA01F108409C
:100A10007047406801228A4042F48032104010F44E
:100A2000803F08BF704740F470204FF4803202FAD4
:100A300001F1884370470A4601F00F0101236FF36B
:100A40000F0203FA01F11143826A11438162704778
:100A500030B4446989004FF00F0C0CFA01FC02F02D
:100A60000F0524EA0C048D402C434461046A03F012
:100A7000030324EA0C0C03FA01F14CEA01010162C0
:100A800002F00F018B1F032B84BF30BC7047C900DD
:100A9000C3694FF0300C30390CFA01FC02F030021F
:100AA00023EA0C0302FA01F11943C16130BC70471B
:100AB00000EB411000F14001002003E08B6842F898
:100AC000043B401CCB6813F4807F18BF7047082894
:100AD000F4D370470268012303FA01F11143016066
:100AE000704710B400EB4110910050F840CF0F2236
:100AF0008A4003F00F042CEA020C8C404CEA040CF0
:100B0000C0F800C0D0F818C0C3F303242CEA020CCC
:100B10008C404CEA040CC0F818C0D0F804C0C3F3F1
:100B200003142CEA020C8C404CEA040CC0F804C0FC
:100B3000D0F81CC0C3F303542CEA020C8C404CEADE
:100B4000040CC0F81CC013F4702F4FF001040DD03A
:100B5000D0F814C0C3F302432CEA02028B401A43BC
:100B60004261026904FA01F1114304E0026904FAE6
:100B700001F122EA0101016110BC704770B506461F
:100B8000802501241AE006EA050028B90022012187
:100B9000154800F040FA04E001221146124800F026
:100BA0003AFA02221146104800F035FA00220221DA
:100BB0000D4800F030FA6D10601CC4B2082CE2DD64
:100BC0000121094800F0EFF902221146064800F021
:100BD00022FA00220221044800F01DFA01210248F5
:100BE00000F0EFF970BD0000002006402DE9F04153
:100BF0000546AE0002221146184800F00CFA012208
:100C00001146164800F007FA00220121134800F0AF
:100C100002FA00220221114800F0FDF99820FFF7A6
:100C2000ADFFC6F30724A6EB0420C7B22046FFF7AA
:100C3000A5FF3846FFF7A2FF00220121074800F078
:100C4000EAF902221146054800F0E5F901221146B1
:100C5000024800F0E0F9BDE8F08100000020064005
:100C600010B50A490A4800F073FA0A49086000F012
:100C700027F8FFF729FEFFF77DFE00F025FE00F0C4
:100C800021FA00F009FC00F0FBF910BD000E270767
:100C9000800600F124000020D0F8003412F0010F8B
:100CA00014BF0B438B43C0F8003412F0020FD0F88E
:100CB000202414BF114322EA0101C0F82014704718
:100CC00010B5334800F0B6FB00BF314800F0C6FB5A
:100CD0000028FAD02E48801C00F0ACFB00BF2C4846
:100CE000801C00F0BBFB0028F9D02948401C00F014
:100CF000A1FB00BF2648401C00F0B0FB0028F9D043
:100D00002348001F00F096FB00BF2148001F00F0A1
:100D1000A5FB0028F9D030211E4800F052F901212E
:100D20001D4800F04EF903211C4800F04AF91C4808
:100D300000F006F91021184800F051F90A230122A9
:100D40001021154800F060F80421134800F039F92B
:100D50000821144800F035F90D48401E00F06AFBE8
:100D600000BF0B48401E00F079FB0028F9D00A2391
:100D7000012203210C4800F047F8002201210A4813
:100D800000F01AF80121084800F010F810BD00002A
:100D9000090800F000100640003006400020064020
:100DA00003100B000050024000D00340D0F8102484
:100DB0001143C0F810147047D0F8083412F0010F36
:100DC00014BF0B438B43C0F80834D0F8043412F03E
:100DD000020F14BF0B438B43C0F80434D0F80C341B
:100DE00012F0040F14BF194323EA0101C0F80C14D8
:100DF000D0F8381512F4803F14BF41F0010121F002
:100E00000101C0F8381570472DE9F00301264FF0B5
:100E1000000C0325C2F3411706FA0CF40C4211D062
:100E2000D0F8C48F4FEA4C0405FA04F928EA0908FF
:100E3000C0F8C48FD0F8C48F07FA04F448EA040459
:100E4000C0F8C44F0CF1010C0CF0FF0CBCF1080F02
:100E5000E2D3D0F800C512F0010F14BF4CEA010C28
:100E60002CEA010CC0F800C5D0F804C512F0020F3E
:100E700014BF4CEA010C2CEA010CC0F804C5D0F8F0
:100E800008C512F0040F14BF4CEA010C2CEA010C47
:100E9000C0F808C5D0F818C512F0080F14BF4CEA06
:100EA000010C2CEA010CC0F818C512F0100FD0F894
:100EB0003C2514BF0A438A43C0F83C25D0F80C25D2
:100EC00013F0010F14BF0A438A43C0F80C25D0F871
:100ED000102513F0020F14BF0A438A43C0F81025EF
:100EE000D0F8142513F0040F14BF0A438A43C0F846
:100EF0001425D0F81C2513F0080F14BF0A438A43A9
:100F0000C0F81C25D0F8442513F4007F14BF0A4311
:100F10008A43C0F84425D0F8402513F4407F14BF1D
:100F20000A438A43C0F84025D0F82825002B0CBF7F
:100F3000114322EA0101C0F82815BDE8F00370470B
:100F40000E4AC0F30741D26E01238B401A420C4A6D
:100F50001ABF02EBC101496852F83110020AD1F8F8
:100F60002C354FF00F0C0CFA02FC00F00F0023EAB6
:100F70000C0390401843C1F82C05704700E00F4067
:100F80007032000050F82100704730B50C4605461D
:100F90000022FFF781FE21462846BDE830400023AD
:100FA0000122FFF731BF30B50C4605460022FFF79E
:100FB00073FE21462846BDE8304008230122FFF792
:100FC00023BF30B50C46054608230122FFF71CFF5E
:100FD00021462846BDE830400122FFF75DBE30B50E
:100FE0000C4605460222FFF757FE21462846BDE87B
:100FF000304008230122FFF707BF30B50C460546F5
:101000000222FFF749FE21462846BDE8304008236A
:101010000122FFF7F9BE40F8212070471649042845
:1010200004BF086840F4803018D0052804BF086861
:1010300040F4003012D0062812D00F2815D0102806
:1010400038BF7047103800F01F01012202FA01F189
:1010500042090A4850F82200016070470860704752
:10106000086840F48020086070474FF0E020016974
:1010700041F002010161704724ED00E0BC33000043
:1010800010B5FFF742F9002818BF012010BD00007D
:1010900030B40A4D2A680A4B9A421CBFD5F800C0EA
:1010A000002207D05CF8224043F82240521C9B2AC1
:1010B000F8D32B6043F8201030BC704708ED00E0F7
:1010C0000004002010B51B4800F0B4F91A4800F0E5
:1010D000B1F900BF184800F0C1F90028FAD001208A
:1010E000FFF72EFF40F20140FFF72AFF03214FF0E8
:1010F0004020FFF782FF60234FF4E1320F48016880
:101100000F4800F038FD202204210D4800F06AFD50
:101110001520FFF783FF7021094800F068FD2022A9
:101120000021074800F05EFD06A1054800F06DFDB6
:1011300010BD0000001800F0000800F0240000209E
:1011400000C000400D0A48656C6C6F210D0A00005C
:101150002DE9F003AD4D02462868AD4B1840A0F1D3
:101160008053B3F5A02358D002F03809DFF8A482E9
:10117000C2F38414B9F1100F24D0B9F1300F04BFB9
:1011800047F230504FF400130CD03820904304BF86
:101190004FF40040C30105D012F0380F1CBF0020EF
:1011A000034613D09C4F12F4605F4FF0000618BF47
:1011B00000222CD057F8324044457DD307EBC202C1
:1011C0005268DFE0002340461524EBE7A4F1090054
:1011D000122822D29148D5F87CC04FF04C7350F8B9
:1011E00024002CF01C0C072CA8BF4CF0100CC5F8E8
:1011F0007CC02E6D4FF4002C16F4807FD2D1BCF150
:10120000010C0AD02E6D16F4807FF8D0CAE712F0D8
:10121000380F18BFB9F1100F03D0BDE8F00300205C
:101220007047C2F30268DFF8F8C1002257F8329025
:10123000E14503D307EBC202526803E0521C062AC1
:10124000F4D33246C5F8C020D5F8B020DFF8D4C1B9
:1012500002EA0C0242F00042C5F8B020DFF8C8C133
:10126000A4F109024C1E5CF828C0A444BCFBF1FCAC
:10127000D5F8B0101943C5F8B01008EBC80101EB60
:1012800041046A4902EB420201EBC40101EB820412
:101290006468C5F86441D5F864416FF0FF0808EB55
:1012A0000C2C44EA0C0CC5F864C151F82210D5F896
:1012B000602102F4000200E05FE01143C5F8601114
:1012C000D5F86011D5F86021C1F38921C2F3090472
:1012D000D5F86421C2F3042202F1010CD5F864218F
:1012E00002F01F02521CB0FBF2F04A09C2F10008E2
:1012F0004443424301EB481104EB5212484302EBD2
:101300009020B0FBFCF041080846002257F832C09C
:10131000844503D307EBC200466802E0521C062A4C
:10132000F4D3C5F8C060D5F8600110F4000F1DBFFC
:10133000D5F8B00040F08040C5F8B000D5F86001A5
:1013400004BF40F40000C5F860014FF40040D5F838
:10135000682112F0010F02D1401E0028F7DC00289E
:1013600008BF002148D0D5F8B000184340F0010074
:1013700040F01040C5F8B0003EE0521C062AFFF4D1
:1013800019AF3246C5F8C020D5F8602122F400021A
:10139000C5F86021D5F8B020DFF894C002EA0C024D
:1013A00042F00042C5F8B020002908BF4FF0000C01
:1013B0000AD0B0FBF1FCBCF1000F18BFACF1010C7E
:1013C0000CF10101B0FBF1F10846002257F8324060
:1013D000844203D307EBC200466802E0521C062A8F
:1013E000F4D3C5F8C060D5F8B00043EA8C221043AE
:1013F00040F00040C5F8B000D5F8B00020F470000F
:10140000C5F8B000BDE8F0030846704700E00F40A3
:101410000000FF700024F400303600001434000097
:1014200040787D0100FC0FE00C34000080340000A7
:10143000FF0300EFC0F307230749C0B2194401F0CE
:101440007043C1F3130143EA411141EA800040F0C7
:10145000007001220260704700E60F40C0F30722CF
:101460000849C0B2114401F07042C1F3130142EACD
:10147000411141EA800040F000700068002818BF68
:101480000120704700EA0F404FF0E020016941F071
:10149000050101617047000010B50648006832215F
:1014A000B0FBF1F4204600F00EF8FFF7EDFF00F07E
:1014B00003F810BD240000204FF0E020016941F046
:1014C0000201016170474FF0E021401E4861704702
:1014D00010B501205149087051480078401CC0B235
:1014E0004F490870022805DB01204E490870002092
:1014F0004B4908704C480078401CC0B24A490870FB
:10150000052805DB0120494908700020464908707C
:1015100047480078401CC0B245490870322805DBB6
:10152000012044490870002041490870424A43485C
:101530000178434800F050F901214248FFF722FDAD
:101540004149086002213F48FFF71CFD3F49086000
:101550003D48006898B90846006880B93C48006872
:10156000052805D23A480068401C394908602DE03A
:1015700003203849088000203549086026E03248B9
:10158000006880B932480068052805D230480068F4
:10159000401C2F49086019E001202E4908800020D6
:1015A0002B49086012E02948006878B9284800688B
:1015B000052805D226480068401C2549086005E03A
:1015C0000220244908800020214908602248008820
:1015D000012814D104212148FFF7D4FCC04320493D
:1015E00008800846027804211C48FFF714FD1C48B7
:1015F0000078C043C2B208211A48FFF70CFD164814
:10160000008848B9002204211448FFF704FD002295
:1016100008211448FFF7FFFC10BD00000600002061
:101620000000002003000020010000200400002032
:1016300002000020050000201B0000200F000020F9
:101640000700002000D003409000002094000020FC
:1016500098000020780000209C0000200030064008
:10166000A0000020005002400448006840F47000D0
:1016700002490860024803490860704788ED00E0AD
:101680000024F4002401002010B50121064800F0D8
:10169000C7F904462146044800F088F90348006869
:1016A000401C0249086010BD004003408800002033
:1016B000014600202D2956D014DC212976D2DFE8FE
:1016C00001F030323436383A3C3E40424446484AD3
:1016D0004C4E75757575757575757575757575750A
:1016E000757554004C294ED00ADCA1F14102092A3B
:1016F0005CD2DFE802F03E5B594E4C443C52400065
:10170000592948D006DC4E2937D052293DD05529D9
:101710004CD136E05F2924D0622943D06F2945D1CE
:101720003EE03F2044E0062042E05B2040E04F20C6
:101730003EE066203CE06D203AE07D2038E0072066
:1017400036E07F2034E06F2032E0772030E07C20EC
:101750002EE039202CE05E202AE0792028E071205C
:1017600026E0082024E0402022E0002020E03D2068
:101770001EE077201CE006201AE0372018E07120D8
:1017800016E03E2014E0382012E0502010E07920CE
:101790000EE05E200CE06E200AE0762008E005E016
:1017A0005C2005E07C2003E0392001E0002000BF40
:1017B00000BF704710B5002210210648FFF72BFC30
:1017C0008A2000F057F8102211460248FFF723FC48
:1017D00010BD0000001006402DE9FF4105460E46F1
:1017E00017464FF00108002419E0285DFFF760FF5D
:1017F0000DF8140006EA080028B11DF8140040F0A6
:1018000080000DF814004FEA48604FEA1068385D18
:10181000012101EB44010DF80100601CC4B2082C49
:10182000E3DB002210211248FFF7F5FB402000F017
:1018300021F8102211460E48FFF7EDFB002210217F
:101840000B48FFF7E8FBC02000F014F8002405E087
:101850001DF8040000F00EF8601CC4B2102CF7DB79
:10186000102211460248FFF7D6FBBDE8FF810000B9
:101870000010064070B5044620211148FFF7A1FB77
:1018800000251AE0002201210E48FFF7C4FB04F0F6
:10189000010028B1202211460948FFF7BCFB04E0F3
:1018A000002220210648FFF7B6FB641001221146F2
:1018B0000448FFF7B0FB681CC5B2082DE2DB70BD21
:1018C000001006400030064010B51448FFF7B2FD86
:1018D00000BF1248FFF7C2FD0028FAD01049114896
:1018E00000F024F80022FF210E4800F04FF80922F2
:1018F000FF210C4800F099F80B4AFF21094800F03D
:101900005BF80221074800F053F84F20FFF786FBF1
:10191000FF21044800F043F810BD0000040400F06B
:1019200013000004004003408916000010B4C26890
:1019300022F0010222F48072C2600A0E0260114A93
:101940001268114B02EA030CACF18054CBB2C1F324
:101950000722B4F5202407D043F40071416042F41B
:101960000071816010BC70474FF4704C0CEA111488
:10197000234343F4007343600CEA1121114341F403
:101980000071EEE700E00F400000FF7040F60C43EE
:101990001940C3688B4311401943C1607047C26846
:1019A00040F2011319401143C16070474162704712
:1019B000826911438161704770B5164BDFF850C0E2
:1019C0000C241B68144D2B40A3F18055B5F5202540
:1019D00004BFDFF848C008240023002C0ED95CF8AF
:1019E0003350854207D10CEBC300B1F57F4F4468FB
:1019F00008BF641C03E05B1CA342F0D30024114623
:101A00002046FFF745FB2046BDE87040FFF706BBC8
:101A10006036000000E00F400000FF70C03600009C
:101A2000002914BF006AC069704711F0FF0F18BF8A
:101A3000026311F47F4F18BF4263704770B50121F4
:101A40003C4800F0D8F8044621463A4800F0CDF86A
:101A5000102C04D0202C3FD0402C67D100BF35E0A3
:101A6000344800F06DF8C5B2334890F83F0020B319
:101A7000314800783049497888420BDB00222E48F3
:101A80004078401E2C49891C0A540020891E81F888
:101A90003F001AE0FEF7DCFC0068405D00F001004A
:101AA00060B1002124480278801C8154801E007897
:101AB00018B10020204981F83F0006E01E4908784F
:101AC000411C1D4A1170911C0D5400BF194800F0B3
:101AD0004DF80028C4D12AE01BE0184890F83F20B8
:101AE000801C815C134800F039F890B1134890F8DD
:101AF0003F00401CC0B2114981F83F00097888427C
:101B000007DB00200D4981F83F000870012081F8B3
:101B100040000A4890F8400038B90848007820B1E1
:101B2000044800F06DF80028D7D100E000BF00BFE6
:101B300070BD000000C00040A2000020E2000020B4
:101B4000816911F0100F0CBF00684FF0FF30704733
:101B5000826912F0200FFBD101607047826912F098
:101B6000200F06BF0160012000207047806901211D
:101B700021EA10107047D0F818C01CF0080FFAD1F5
:101B8000D0F82CC02CF0100CC0F82CC0D0F830C00D
:101B90002CF0010C2CF4407CC0F830C0D0F830C0E0
:101BA000B1EB021F34BF4CF0200C2CF0200CC0F81D
:101BB00030C038BF5208C900B1FBF2F1491C4908D6
:101BC0008A09426201F03F018162C36200218161A2
:101BD000C16A41F01001C162016B40F20132114350
:101BE0000163704711434163704741647047826BE2
:101BF000114381637047002914BF006CC06B7047AC
:101C00008069012121EA5010704770B505460C46E5
:101C100004E014F8011B2846FFF79AFF20780028FB
:101C2000F7D170BDF0B591B0F64890F83F000028AC
:101C30007BD1F54890F84000002876D0F149891C06
:101C4000F2A0FEF747FD00283ED10120F1490880AF
:101C50003C2102A8FEF716FDEF4800680A21B0FB00
:101C6000F1F201FB1204EC480068B0FBF1F0B0FBAC
:101C7000F1F201FB1205E84800686421B0FBF1F0C5
:101C80000A21B0FBF1F201FB1206E34800684FF4B1
:101C90007A71B0FBF1F733463A46E0A102A8CDE9EC
:101CA0000054FEF7DDFB02A9D748801CFEF75CFC60
:101CB000D548801CFEF77CFCD3490870002081F8D1
:101CC0003F0081F840006BE10622CE49891CD7A075
:101CD000FEF78DFC002840D10220CE4908803C212F
:101CE00002A8FEF7CFFCD44800680A21B0FBF1F24D
:101CF00001FB1204D0480068B0FBF1F0B0FBF1F238
:101D000001FB1205CC4800686421B0FBF1F00A2108
:101D1000B0FBF1F201FB1206C74800684FF47A717C
:101D2000B0FBF1F733463A4600E03FE1C3A102A819
:101D3000CDE90054FEF794FB02A9B348801CFEF7DE
:101D400013FCB148801CFEF733FCAF49087000203B
:101D500081F83F0081F8400022E10622A949891C50
:101D6000BAA0FEF744FC00283ED10220A949088011
:101D70003C2102A8FEF786FCB74800680A21B0FBA8
:101D8000F1F201FB1204B4480068B0FBF1F0B0FBC3
:101D9000F1F201FB1205B04800686421B0FBF1F0DC
:101DA0000A21B0FBF1F201FB1206AB4800684FF4C8
:101DB0007A71B0FBF1F733463A46A0A102A8CDE90B
:101DC0000054FEF74DFB02A98F48801CFEF7CCFBA8
:101DD0008D48801CFEF7ECFB8B490870002081F8D1
:101DE0003F0081F84000DBE006228649891C9BA069
:101DF000FEF7FDFB68BB3C2102A8FEF743FC9A48B6
:101E000000686421B0FBF1F00A21B0FBF1F201FBA4
:101E10001204954800684FF47A71B0FBF1F523463F
:101E20002A4692A102A8FEF71BFB032079490880ED
:101E300002A97548801CFEF797FB7348801CFEF7CB
:101E4000B7FB71490870002081F83F0081F840001D
:101E5000A6E006226B49891C88A0FEF7C8FBF0B9F2
:101E60003C2102A8FEF70EFC88A102A8FEF7F8FAB2
:101E700002206849088001208C49087002A9624844
:101E8000801CFEF771FB6048801CFEF791FB5E49E9
:101E90000870002081F83F0081F8400080E00622B1
:101EA0005849891C82A0FEF7A2FBF0B93C2102A888
:101EB000FEF7E8FB81A102A8FEF7D2FA02205549FD
:101EC000088000207949087002A94F48801CFEF75D
:101ED0004BFB4D48801CFEF76BFB4B490870002004
:101EE00081F83F0081F840005AE006224549891CEC
:101EF00079A0FEF77CFB002842D13C2102A8FEF726
:101F0000C1FB55480068400043490968484374498B
:101F10000860084600687349B0FBF1F00A21B0FB85
:101F2000F1F201FB12046E4800686F49B0FBF1F05A
:101F30000A21B0FBF1F201FB1205694800686A4909
:101F4000B0FBF1F62B46324668A102A80094FEF7DA
:101F500087FA02202F49088000205449087002A9FE
:101F60002948801CFEF700FB2748801CFEF720FB59
:101F700025490870002081F83F0081F840000FE0FB
:101F80005EA12148801CFEF7EFFA1F48801CFEF777
:101F90000FFB1D490870002081F83F0081F84000C8
:101FA000002018490870012081F83F001BE0164806
:101FB00090F83F20801C815C5448FFF7CFFD90B122
:101FC000114890F83F00401CC0B20F4981F83F0013
:101FD0000978884207DB00200B4981F83F00087030
:101FE000012081F84000084890F8400038B90648C0
:101FF000007820B14548FFF703FE0028D7D111B083
:10200000F0BD0000A2000020E2000020566F6C74BA
:10201000616765007800002048000020203D2025F1
:10202000642E256425642564205600004375727271
:10203000656E7431000000004C000020203D20251A
:10204000642E256425642564204100004375727266
:10205000656E743200000000500000204672657109
:1020600075656E63790000007C000020203D20250E
:10207000642E2564206B487A00000000537065636D
:1020800069616C204D6F64650000000052756E6ED2
:10209000696E6720696E2074686520737065636976
:1020A000616C206D6F64652E000000008C000020C4
:1020B0004E6F726D616C204D6F64650052756E6E6F
:1020C000696E6720696E20746865206E6F726D613D
:1020D0006C206D6F64652E00506F77657200000094
:1020E00054000020A086010040420F00203D202522
:1020F000642E256425642057000000004572726F2D
:102100007220436F6D6D616E6421000000C000405D
:102110008A480088022863D11120894908708948BB
:1021200000684FF47A71B0FBF1F00A21B0FBF1F2D4
:1021300001FB120084490870824800686421B0FBEA
:10214000F1F00A21B0FBF1F201FB12007E49487068
:102150007C4800680A21B0FBF1F0B0FBF1F201FB12
:10216000120079498870774800680A21B0FBF1F2C3
:1021700001FB12007449C870744800684FF47A710A
:10218000B0FBF1F00A21B0FBF1F201FB12006E4945
:1021900008716E4800686421B0FBF1F00A21B0FBC1
:1021A000F1F201FB120068494871684800680A2191
:1021B000B0FBF1F0B0FBF1F201FB12006249887153
:1021C000624800680A21B0FBF1F201FB12005E498F
:1021D000C87100205E490870012048700020887096
:1021E00056480088012862D1112055490870594885
:1021F00000684FF47A71B0FBF1F00A21B0FBF1F204
:1022000001FB120050490870524800686421B0FB7D
:10221000F1F00A21B0FBF1F201FB12004A494870CB
:102220004C4800680A21B0FBF1F0B0FBF1F201FB71
:10223000120045498870474800680A21B0FBF1F256
:1022400001FB12004049C870434800684FF47A719E
:10225000B0FBF1F00A21B0FBF1F201FB12003A49A8
:1022600008713D4800686421B0FBF1F00A21B0FB21
:10227000F1F201FB120034494871374800680A2125
:10228000B0FBF1F0B0FBF1F201FB12002E498871B6
:10229000314800680A21B0FBF1F201FB12002A4923
:1022A000C87101202A4908700020487088702348AE
:1022B0000088032841D1042021490870274800687C
:1022C0002749B0FBF1F00A21B0FBF1F201FB12004B
:1022D0001D4908702148006842F21071B0FBF1F00E
:1022E0000A21B0FBF1F201FB1200174948701B48AC
:1022F00000684FF47A71B0FBF1F00A21B0FBF1F203
:1023000001FB120010498870144800686421B0FB7A
:10231000F1F00A21B0FBF1F201FB12000A49C8708A
:102320005F2008714871462088715F20C8710020C5
:1023300007490870487001208870704778000020B5
:102340000F00002050000020070000204C0000205B
:102350001B00002010000020480000207C0000200E
:10236000A08601002DED0A8BFEF77AFC00BFD14854
:1023700000780328FBDBFFF71DFA0120CE49087027
:1023800097E1CE480078012830D10020CB49087071
:10239000CB48006800F02FFC41EC1A0B9FEDC90BF5
:1023A00053EC102B00F03AFC41EC190B9FEDC70BDE
:1023B00053EC102B00F030FD41EC180B00F0EEFB5D
:1023C000C4490860084600684BF6242188420AD9AF
:1023D000C0480068C049884205D2BE480068A0F5E0
:1023E0009670BC4908600020B5490860BB48006889
:1023F000B0F57A7F03D90120B949088002E00020B6
:10240000B7490880B748007801287CD10020B54939
:102410000870FEF78BFAFEF7D5FAB3490860B348A7
:10242000D0ED000AB24890ED000AB8EE400A20EE66
:10243000800AAE48D0ED000AB7EE001A71EE600ACD
:10244000AC4890ED001A00EE810AAB4880ED000A1E
:10245000AA4890ED000AA848D0ED000A30EE200A04
:10246000A64880ED000AA44890ED000AA14880ED3E
:10247000000A9E48D0ED000AA14890ED000AB8EE8F
:10248000400A20EE800A9948D0ED000AB7EE001A03
:1024900071EE600A9B4890ED001A00EE810A9A489E
:1024A00080ED000A994890ED000A9748D0ED000AA7
:1024B00030EE200A954880ED000A934890ED000A1E
:1024C000904880ED000A8948D0ED000A084690ED5A
:1024D000000AB8EE400A20EE800A8448D0ED000AD7
:1024E000B7EE001A71EE600A894890ED001A00EE0E
:1024F000810A884880ED000A874890ED000A8548E7
:10250000D0ED000A00E0C9E030EE200A824880EDFC
:10251000000A804890ED000A7D4880ED000A7F485F
:102520000078401C7D4908700878C11700EB917154
:102530008910A0EB810161BB7948007858B96748E0
:102540000068784909680844400877490860002015
:102550007649C8710DE0614800687249096808440D
:1025600040000321B0FBF1F06F49086001206F4982
:10257000C8716D480068800240F6E441B0FBF1F09C
:102580001D386B490860FFF7C3FD69480068FEF716
:102590002DFB624800786749098888427ED1002077
:1025A0005E4908706348008800F025FB41EC1A0B77
:1025B0005248006800F01AFD41EC1C0B9FED5E0BC9
:1025C00053EC102B00F02AFB41EC1B0B53EC1A2BA5
:1025D00000F08CF941EC190B9FED590B53EC102BCB
:1025E00000F01AFC41EC180B00F0D8FA56490860CC
:1025F0009FED560A414880ED000A4E48008800F0E1
:10260000FAFA41EC190B4148006800F0EFFC41EC8C
:102610001C0B9FED4F0B53EC102B00F0FFFA41EC1D
:102620001B0B53EC192B00F061F941EC180B9FEDDB
:102630004A0B53EC102B00F0EFFB41EC1A0B00F0AF
:10264000ADFA264908609FED410A304880ED000A46
:102650003848008800F0CFFA41EC1B0B2E48006888
:1026600000F0C4FC41EC1C0B9FED3D0B53EC102B18
:1026700000F0D4FA41EC1A0B53EC1B2B00F036F9A6
:1026800041EC190B9FED380B53EC102B00F086F842
:1026900041EC180B00F082FA224900E007E00860E4
:1026A0009FED2A0A1C4880ED000AFFF731FDFFF775
:1026B000B9FA66E60100002018000020050000209D
:1026C0008800002017D9CEF7532324409A9999996E
:1026D0009999ED3F7C0000200ED708004C000020A7
:1026E0009C00002006000020300000207000002028
:1026F00028000020580000205C0000203C00002042
:102700002C00002060000020640000204000002019
:10271000680000206C0000204400002038000020E9
:102720008C00002050000020100000201B00002022
:10273000140000207400002076711B0DE0ADFD3FF9
:10274000DC4603788B8687404800002000000000AC
:102750006B9A779CA223E13FBC74931804D6264061
:10276000FA145B9C8C85E93F54E3A59BC4E032409E
:1027700010B500290AD00878002807D00548784409
:10278000FDF7A8FF002801D0002010BD02487844C2
:1027900010BD0000A20F00009A0F000010B591EAD2
:1027A000030F48BF83F0004300F13E83841A71EBAE
:1027B000030C05D2121943EB0C03001B61EB0C0157
:1027C000DFF824E14FEA1154A4EB135C1EEA430F37
:1027D00018BF9EEA445F73D023EA0E03DCF1200E9B
:1027E00021EA045143F4801332D322FA0CFE10EB99
:1027F0000E0023FA0CFE41EB0E01CCF1200E03FA81
:102800000EFE10EB0E0051F10001B1F5801FCCF16E
:10281000200E32D201EB045112FA0EF2BDE8104044
:1028200058BF7047401C38BF5FEA420218BF70476C
:10283000002814BF20F0010041F100014FEA4103DC
:1028400013F5001F38BF7047A1F1C04100F0DEBA98
:10285000012A43EB0302ACF1200CDCF11F0E32BF66
:102860004FF0000E23FA0CF310EB030041EB045180
:10287000B4EB115FD0D0A1EB045101F580114908F0
:102880005FEA300001EB04510ED350F1000038BF75
:1028900012FA0EFE08D1BDE81040C9E7401C38BF4F
:1028A0005FEA4202CAD1C3E7BDE810404FEA4103E4
:1028B00013F5001F38BF7047A1F1C04100F0A6BA60
:1028C0009EEA445F08D011EA5E0FBDE8104004BFE5
:1028D00001F0004100207047BDE8104070B500F0E5
:1028E00047FA00BF64FBBE3E0000E0FF2DE9C04197
:1028F00030B4DFF8A0C23CEA111418BF3CEA13144C
:1029000000F0EC8081EA03051CEA111444EAD57456
:1029100018BF1CEA131500F0C780A4EB05044FF0A4
:10292000004545EAC12145EAC32341EA505143EA43
:10293000525304F17F74994204F500344FEAC020E9
:102940004FEAC22208BF904200F09C804FEA136514
:102950000FF24016765D4FEA134506FB05F7C7F107
:10296000807706FB07F74FEAD737A7FB0368764265
:10297000C8F58038A7FB06CE38BFA8F1010807FBD1
:1029800008E64FF0000EA6FB028CE6FB03CEDCF15E
:10299000000CCEF1004E38BFAEF1010EA6FB0C5874
:1029A0004FF000074FF00005E6FB0E87A1FB08C6BD
:1029B000A0FB07CE16EB0E0645F10005E1FB07650F
:1029C00015F1E04E7EBFA4F580345FEA46066D4106
:1029D00016F1800745F100054FEA17274FEA066612
:1029E00047EA0567A6F1DE46B6F1805F4FEA152596
:1029F0001FD9384624F0010C05EBC471BCF1FE6F01
:102A000001EB0C1102D8F0BCBDE8008124425CBF90
:102A100001F5801E9EEAC47F02D4F0BCBDE80081AF
:102A2000244238D4F0BCA1F1C041BDE8004100F01F
:102A3000EDB94FEAD22242EA43524FEAD323A7FB31
:102A400002864FEAD02040EA415007FB03661EEAA7
:102A50000E0F4FEAD12105FB026658BFA6EB0056C8
:102A6000B6EB00564FEA520E4EEAC37E18EB0E0E3E
:102A700056EB530EBDD518EB02085E417F1C55F195
:102A80000005B6E74FF480154FF000074FF0000641
:102A90004FF00008ADE7F0BC4FF0000001F1C0417D
:102AA00001F00041BDE8008111EA0C1F0CEA13158A
:102AB00000D00CE013EA0C1F00F025804FF000005E
:102AC000F0BC81EA030101F00041BDE80081F0BCE7
:102AD000BDE8004181EA030100F098B9F0BCBDE80F
:102AE000004170B500F044F9097EFC3E00F007B8E3
:102AF00081EA03014FF0000001F00041704781EAD4
:102B0000030100F083B9F0BCBDE800414FF00000C4
:102B100021497047FFFDFBF9F7F5F4F2F0EEEDEB1C
:102B2000E9E8E6E4E3E1E0DEDDDBDAD8D7D5D4D3CB
:102B3000D1D0CFCDCCCBCAC8C7C6C5C4C2C1C0BF17
:102B4000BEBDBCBBBAB9B8B7B6B5B4B3B2B1B0AF1D
:102B5000AEADACABAAA9A8A8A7A6A5A4A3A3A2A101
:102B6000A09F9F9E9D9C9C9B9A99999897979695BC
:102B700095949393929191908F8F8E8E8D8C8C8B58
:102B80008B8A8989888887878685858484838382E0
:102B9000828181800000FF070000F87F4FEA115317
:102BA000A3F58063D3F11E03A8BFD3F1200C08DB8B
:102BB0004FF0004242EAC12252EA505232FA03F088
:102BC000704709420BD4102BC4BF0020704703F597
:102BD000787CBCF1FF3F05D04FF0FF3070474FF0DD
:102BE0000000704770B500F0C3F800BF4992248020
:102BF00000207047F0E7B0FA80F310FA03F10AD032
:102C0000C3F11D0303F580634FEA41504FEA0352BD
:102C100002EBD12170474FF000007047DFF848C148
:102C200070B51CEA111E1EBF1CEA13159EEA0C0F9C
:102C300095EA0C0F00F06F8081EA030423EA4C133D
:102C40004EEAD47E21EA4C1141F4801143F4801302
:102C5000AE44A1FB024CA0FB0365AEF17F7E3619AA
:102C600055EB0C05A1FB034C4CF10003A0FB021C2F
:102C700016EB0C06654153F10003094218BF46F0FC
:102C8000010613F4007F0BD14FEA03314FEA053000
:102C9000340341EA155140EA16506FF003020AE08E
:102CA0004FEAC3214FEAC520F40241EA555140EAF8
:102CB00056506FF0020202EB2E4201EB025585EAFC
:102CC000CE710AD05FEA440C18BF24F0004450F1E2
:102CD000000041F1000120EAD47040F2FE7C624520
:102CE00000D270BDA84214BF4FF080444FF0404462
:102CF000002E08BF0024BEF1806FA8BFA1F1C04123
:102D0000BDE8704080F282804FF0000001F1C041C8
:102D100001F0004170479EEA0C0F0CEA131518BF32
:102D200095EA0C0F06D04FF0000081EA030E0EF07A
:102D3000004170BD00F01CF88900013E00F007B8AA
:102D400000F009B84FEA430C5FEA5C5C08D081EA06
:102D5000030100F05BB84FEA410C5FEA5C5CF6D11E
:102D60004FF00000014970470000FF070000F87FA6
:102D70000EF1020E2EF0030E5EF8046B364205D4FF
:102D8000012A43EB030515F5001F12D8012841EB7A
:102D9000010C1CF5001F0CD80ED14FEAD17C15F5A3
:102DA000001F0CEB4C0C0CF1020C08BF4CEBD37C5D
:102DB00004E04FF0080C01E04FEAD37C0CEB4C052B
:102DC00026FA05F606F00706B6F1040C06D20EEB5D
:102DD000860CBDE870404CF0010C6047DFE80CF059
:102DE000090B02024FF000414FF00000A1F5002155
:102DF00070BD19461046012851EB010418BFD4F5E7
:102E0000001484BF002001F0004170BD0808A0F547
:102E100000114FEA3101704710B591EA030F48BF26
:102E200083F000433FF5C2AC841A71EB030C07D268
:102E300012198CF0004C43EB0C03001B61EB0C01EE
:102E4000DFF8A4E14FEA1154A4EB135C1EEA430F30
:102E500018BF9EEA445F00F0B08023EA6E0352423E
:102E600021EA0451C3EB6E0338BF5B1EDCF1200E78
:102E700025D322FA0CFE10EB0E0043FA0CFE41EBB8
:102E80000E01CCF1200E03FA0EFE10EB0E0051F1F4
:102E90000001CCF1200E29D412FA0EF201EB0451FC
:102EA000BDE8104058BF7047401C1CBFB2F1004F36
:102EB000704700280CBF491C20F00100704712EB3E
:102EC000020E43EB030218BF4FF0010E4EEA42021E
:102ED000ACF1200CDCF11E0E54D943FA0CFE10EBC1
:102EE0000E0051F1FF31CCF11E0ED5D50EF1010EC1
:102EF00012FA0EFE404141EB010101EB445C5FEA36
:102F00005C5C10D910EBDE7001EB045138BFBEF1F0
:102F1000004FBDE8104018BF704700280CBF491C87
:102F200020F00100704730D24FEAD42C11F5001187
:102F300024F400641BD0B1FA81F20B3AA41AA41E47
:102F4000D2F12003914030FA03F31943904001EB92
:102F5000CC71002C01EB0451BDE81040A8BF7047B4
:102F600001F1C0414FF0000001F000417047B0FA9C
:102F700080F310FA03F100D110BDE41A173C4805A4
:102F8000C90AE4E701EB045110BD491001EB0451FB
:102F9000BDE810404FEA300002E04FF000017047FA
:102FA0004A0008BF0042F8D0B2F5001F28BF7047A2
:102FB00001F000414FF0000070479EEA445F07D0E7
:102FC00011EA5E0FBDE8104004BF002100207047E9
:102FD000BDE8104070B5FFF7CBFE00BF40DFF63E06
:102FE00083F00041104670470000E0FF43004FEAC5
:102FF000D30C4FEA3C0C43401FBF40070CF160511B
:1030000013F0FE4F70471CF0006F03D100200CF04E
:10301000004170470CF0004343EA507010B540EA9D
:10302000CC0000F00EF800BF000000924FEA000153
:10303000FFF7ECBE4FF000414FF00000A1F500217A
:1030400070470EF1020E2EF0030E5EF8044B244280
:1030500004D44FEA4102B2F17F4F11D84FEA400346
:10306000B3F17F4F0CD80ED14FEAD07CB2F17F4F35
:103070000CEB4C0C0CF1020C08BF4CEBD17C04E0C7
:103080004FF0080C01E04FEAD17C0CEB4C0324FA22
:1030900003F404F00704B4F1040C06D20EEB840C24
:1030A000BDE810404CF0010C6047DFE80CF0070869
:1030B00002024FF00040A0F5800010BD084642001B
:1030C00018BFD2F1807288BF00F0004010BD4FF0F1
:1030D0004070E1EE100A7047004000401000000010
:1030E000008005401000000000500040110000006A
:1030F0000090054011000000006000401200000038
:1031000000A0054012000000007000401300000005
:1031100000B0054013000000004002401400000011
:1031200000C0054014000000005002402E000000C6
:1031300000D005402E000000006002402F0000007B
:1031400000E005402F000000007002403000000049
:1031500000F005403000000000D0034046000000B1
:103160000000064046000000001006404700000036
:103170000020064048000000003006407F000000AC
:10318000004006408000000000500640840000001F
:10319000006006408C00000000400040100000006D
:1031A00000800540100000000050004011000000A9
:1031B0000090054011000000006000401200000077
:1031C00000A0054012000000007000401300000045
:1031D00000B0054013000000004002401400000051
:1031E00000C0054014000000005002402E00000006
:1031F00000D005402E000000006002402F000000BB
:1032000000E005402F000000007002403000000088
:1032100000F005403000000000D0034043000000F3
:10322000000006404300000000100640440000007B
:103230000020064045000000003006405800000015
:103240000040064059000000005006405C000000AD
:103250000060064064000000007006406C00000042
:10326000008006406D000000009006407F000000D6
:1032700000400040008005400050004000900540A4
:103280000060004000A005400070004000B0054014
:103290000040024000C005400050024000D0054000
:1032A0000060024000E005400070024000F0054070
:1032B00000D0034000000640001006400010064009
:1032C0000020064000200640003006400030064046
:1032D00000400640004006400050064000500640B6
:1032E0000060064000600640007006400070064026
:1032F0000080064000800640009006400090064096
:1033000000070000000600000005000000040000A7
:1033100000030000000200000001000000000000A7
:103320000000000018ED00E01CED00E020ED00E0E2
:1033300000E400E004E400E008E400E00CE400E065
:1033400010E400E014E400E018E400E01CE400E015
:1033500020E400E024E400E028E400E02CE400E0C5
:1033600030E400E034E400E038E400E03CE400E075
:1033700040E400E044E400E048E400E04CE400E025
:1033800050E400E054E400E058E400E05CE400E0D5
:1033900060E400E064E400E068E400E06CE400E085
:1033A00070E400E074E400E078E400E07CE400E035
:1033B00080E400E084E400E088E400E000E100E074
:1033C00004E100E008E100E00CE100E010E100E0D1
:1033D00080E100E084E100E088E100E08CE100E0D1
:1033E00090E100E000E200E004E200E008E200E03A
:1033F0000CE200E010E200E080E200E084E200E0A5
:1034000088E200E08CE200E090E200E000688909D8
:10341000001C4E0E40420F0000201C0080841E0045
:1034200000802500999E36000040380000093D00CC
:1034300000803E0000004B00404B4C0000204E003E
:10344000808D5B0000C05D000080700000127A007B
:1034500000007D0080969800001BB7000080BB0034
:10346000C0E8CE00647ADA000024F4000000FA001C
:1034700080A81201002D310100366E0140787D01D7
:103480004000000000000000000100003E000800B5
:103490000000000000010000A00000000200000089
:1034A0000001000034540100000000000001000091
:1034B0002B70060000000000000100002800000042
:1034C00000000000000100002700010000000000D3
:1034D00000010000200000000000000000010000CA
:1034E0005000000002000000000100001AAC0000C3
:1034F0000000000000010000179409000000000017
:103500000001000016980500000000000001000006
:1035100014000000000000000001000013800800FB
:103520000000000000010000A000000008000000F2
:103530000001000010000000000000000001000079
:103540002800000002000000000100004000000010
:103550000400000000010000600000000000000006
:10356000000100005D000C000000000000010000F0
:103570005000000000000000000100004E000200AA
:10358000000000000001000041AC0100000000004C
:10359000000100003C0000000000000000010000ED
:1035A0003A80090000000000000100003000000027
:1035B00000000000000100002800000000000000E2
:1035C00000010000270001000000000000010000D1
:1035D00023600600000000000001000021600800D8
:1035E00000000000000100001E00000000000000BC
:1035F000000100001DC004000000000000010000E8
:10360000500000000200000000010000180000004F
:103610000000000000010000140000000000000095
:103620000001000060000000040000000001000034
:103630000024F40030003000005A62029100910032
:1036400000879303D200D20000B4C4041301130115
:1036500000E1F50554015401000E2707950195017D
:10366000000003402300000000100340250000007C
:10367000002003402700000000300340330000001A
:103680000040034056000000005003406C00000062
:10369000006003406E0000000070034070000000F6
:1036A00000C004407200000000D00440740000001C
:1036B00000E004407600000000F0044078000000C4
:1036C000000003402300000000100340250000001C
:1036D00000200340270000000030034033000000BA
:1036E000004003404F000000005003405100000024
:1036F00000000E407200000000100E407400000038
:1037000030380000000000206C0600003C02000081
:103710005C3800006C060020640200009802000083
:103720001001000043000000F8FFFFFF0040404090
:103730004040404040404141414141404040404084
:103740004040404040404040404040404005020230
:1037500002020202020202020202020202202020EF
:10376000202020202020200202020202020290904B
:103770009090909010101010101010101010101049
:10378000101010101010101002020202020288889D
:1037900088888888080808080808080808080808A9
:1037A0000808080808080808020202024000000091
:1037B0000000000000000000000000000000000009
:1037C00000000000000000000000000000000000F9
:1037D00000000000000000000000000000000000E9
:1037E00000000000000000000000000000000000D9
:1037F00000000000000000000000000000000000C9
:1038000000000000000000000000000000000000B8
:1038100000000000000000000000000000000000A8
:103820000000000000000000000000000000000098
:10383000715A200102601136CDCC4C3D3202270175
:103840001928023D3C0A3D0140298203FF24F4016E
:0C385000FF01FF01FF01FF014A00000022
:0400000500000201F4
:00000001FF
